{
  "contractName": "ChainList",
  "abi": [
    {
      "constant": true,
      "inputs": [],
      "name": "articleCounter",
      "outputs": [
        {
          "name": "",
          "type": "uint256"
        }
      ],
      "payable": false,
      "stateMutability": "view",
      "type": "function"
    },
    {
      "constant": true,
      "inputs": [
        {
          "name": "",
          "type": "uint256"
        }
      ],
      "name": "articles",
      "outputs": [
        {
          "name": "id",
          "type": "uint256"
        },
        {
          "name": "seller",
          "type": "address"
        },
        {
          "name": "buyer",
          "type": "address"
        },
        {
          "name": "name",
          "type": "string"
        },
        {
          "name": "description",
          "type": "string"
        },
        {
          "name": "price",
          "type": "uint256"
        }
      ],
      "payable": false,
      "stateMutability": "view",
      "type": "function"
    },
    {
      "anonymous": false,
      "inputs": [
        {
          "indexed": true,
          "name": "_seller",
          "type": "address"
        },
        {
          "indexed": false,
          "name": "_id",
          "type": "uint256"
        },
        {
          "indexed": false,
          "name": "_name",
          "type": "string"
        },
        {
          "indexed": false,
          "name": "_price",
          "type": "uint256"
        }
      ],
      "name": "LogSellArticle",
      "type": "event"
    },
    {
      "anonymous": false,
      "inputs": [
        {
          "indexed": false,
          "name": "_id",
          "type": "uint256"
        },
        {
          "indexed": true,
          "name": "_seller",
          "type": "address"
        },
        {
          "indexed": true,
          "name": "_buyer",
          "type": "address"
        },
        {
          "indexed": false,
          "name": "_name",
          "type": "string"
        },
        {
          "indexed": false,
          "name": "_price",
          "type": "uint256"
        }
      ],
      "name": "LogBuyArticle",
      "type": "event"
    },
    {
      "constant": false,
      "inputs": [],
      "name": "kill",
      "outputs": [],
      "payable": false,
      "stateMutability": "nonpayable",
      "type": "function"
    },
    {
      "constant": false,
      "inputs": [
        {
          "name": "_name",
          "type": "string"
        },
        {
          "name": "_description",
          "type": "string"
        },
        {
          "name": "_price",
          "type": "uint256"
        }
      ],
      "name": "sellArticle",
      "outputs": [],
      "payable": false,
      "stateMutability": "nonpayable",
      "type": "function"
    },
    {
      "constant": false,
      "inputs": [
        {
          "name": "articleId",
          "type": "uint256"
        }
      ],
      "name": "buyArticle",
      "outputs": [],
      "payable": true,
      "stateMutability": "payable",
      "type": "function"
    }
  ],
  "bytecode": "0x6060604052336000806101000a81548173ffffffffffffffffffffffffffffffffffffffff021916908373ffffffffffffffffffffffffffffffffffffffff160217905550610b4e806100536000396000f30060606040526004361061006d576000357c0100000000000000000000000000000000000000000000000000000000900463ffffffff1680630953ae17146100725780631cc4baa81461009b57806341c0e1b5146100b3578063d2609515146100c8578063edcfafe614610171575b600080fd5b341561007d57600080fd5b610085610327565b6040518082815260200191505060405180910390f35b6100b1600480803590602001909190505061032d565b005b34156100be57600080fd5b6100c66106bd565b005b34156100d357600080fd5b61016f600480803590602001908201803590602001908080601f0160208091040260200160405190810160405280939291908181526020018383808284378201915050505050509190803590602001908201803590602001908080601f01602080910402602001604051908101604052809392919081815260200183838082843782019150505050505091908035906020019091905050610752565b005b341561017c57600080fd5b6101926004808035906020019091905050610a03565b604051808781526020018673ffffffffffffffffffffffffffffffffffffffff1673ffffffffffffffffffffffffffffffffffffffff1681526020018573ffffffffffffffffffffffffffffffffffffffff1673ffffffffffffffffffffffffffffffffffffffff168152602001806020018060200184815260200183810383528681815460018160011615610100020316600290048152602001915080546001816001161561010002031660029004801561028f5780601f106102645761010080835404028352916020019161028f565b820191906000526020600020905b81548152906001019060200180831161027257829003601f168201915b50508381038252858181546001816001161561010002031660029004815260200191508054600181600116156101000203166002900480156103125780601f106102e757610100808354040283529160200191610312565b820191906000526020600020905b8154815290600101906020018083116102f557829003601f168201915b50509850505050505050505060405180910390f35b60025481565b600060025411151561033e57600080fd5b60008110158015610350575060025481105b151561035b57600080fd5b60006001600083815260200190815260200160002060020160009054906101000a900473ffffffffffffffffffffffffffffffffffffffff1673ffffffffffffffffffffffffffffffffffffffff161415156103b657600080fd5b6001600082815260200190815260200160002060010160009054906101000a900473ffffffffffffffffffffffffffffffffffffffff1673ffffffffffffffffffffffffffffffffffffffff163373ffffffffffffffffffffffffffffffffffffffff161415151561042757600080fd5b60016000828152602001908152602001600020600501543414151561044b57600080fd5b6001600082815260200190815260200160002060010160009054906101000a900473ffffffffffffffffffffffffffffffffffffffff1673ffffffffffffffffffffffffffffffffffffffff166108fc349081150290604051600060405180830381858888f1935050505015156104c157600080fd5b336001600083815260200190815260200160002060020160006101000a81548173ffffffffffffffffffffffffffffffffffffffff021916908373ffffffffffffffffffffffffffffffffffffffff1602179055506001600082815260200190815260200160002060020160009054906101000a900473ffffffffffffffffffffffffffffffffffffffff1673ffffffffffffffffffffffffffffffffffffffff166001600083815260200190815260200160002060010160009054906101000a900473ffffffffffffffffffffffffffffffffffffffff1673ffffffffffffffffffffffffffffffffffffffff167f5d28bc06e6f0c45405abfe77bd77236c767f9bd9d044ae2d954a415a2b4823e0600160008581526020019081526020016000206000015460016000868152602001908152602001600020600301600160008781526020019081526020016000206005015460405180848152602001806020018381526020018281038252848181546001816001161561010002031660029004815260200191508054600181600116156101000203166002900480156106aa5780601f1061067f576101008083540402835291602001916106aa565b820191906000526020600020905b81548152906001019060200180831161068d57829003601f168201915b505094505050505060405180910390a350565b6000809054906101000a900473ffffffffffffffffffffffffffffffffffffffff1673ffffffffffffffffffffffffffffffffffffffff163373ffffffffffffffffffffffffffffffffffffffff1614151561071857600080fd5b6000809054906101000a900473ffffffffffffffffffffffffffffffffffffffff1673ffffffffffffffffffffffffffffffffffffffff16ff5b60c06040519081016040528060025481526020013373ffffffffffffffffffffffffffffffffffffffff168152602001600073ffffffffffffffffffffffffffffffffffffffff168152602001848152602001838152602001828152506001600060025481526020019081526020016000206000820151816000015560208201518160010160006101000a81548173ffffffffffffffffffffffffffffffffffffffff021916908373ffffffffffffffffffffffffffffffffffffffff16021790555060408201518160020160006101000a81548173ffffffffffffffffffffffffffffffffffffffff021916908373ffffffffffffffffffffffffffffffffffffffff1602179055506060820151816003019080519060200190610878929190610a7d565b506080820151816004019080519060200190610895929190610a7d565b5060a0820151816005015590505060016000600254815260200190815260200160002060010160009054906101000a900473ffffffffffffffffffffffffffffffffffffffff1673ffffffffffffffffffffffffffffffffffffffff167f5db7f00a49442f3c9ff3803a02e385e2036b1162ffd4145c21c4f94885af77eb6002546001600060025481526020019081526020016000206003016001600060025481526020019081526020016000206005015460405180848152602001806020018381526020018281038252848181546001816001161561010002031660029004815260200191508054600181600116156101000203166002900480156109dc5780601f106109b1576101008083540402835291602001916109dc565b820191906000526020600020905b8154815290600101906020018083116109bf57829003601f168201915b505094505050505060405180910390a2600260008154809291906001019190505550505050565b60016020528060005260406000206000915090508060000154908060010160009054906101000a900473ffffffffffffffffffffffffffffffffffffffff16908060020160009054906101000a900473ffffffffffffffffffffffffffffffffffffffff1690806003019080600401908060050154905086565b828054600181600116156101000203166002900490600052602060002090601f016020900481019282601f10610abe57805160ff1916838001178555610aec565b82800160010185558215610aec579182015b82811115610aeb578251825591602001919060010190610ad0565b5b509050610af99190610afd565b5090565b610b1f91905b80821115610b1b576000816000905550600101610b03565b5090565b905600a165627a7a72305820a3c87b32038046ad34b3ee436755a426578c3ff90012122e97dab20fd7a05e2e0029",
  "source": "pragma solidity ^0.4.18;\n\nimport './Ownable.sol';\n\n\ncontract ChainList is Ownable {\n\n    struct Article {\n        uint id;\n        address seller;\n        address buyer;\n        string name;\n        string description;\n        uint256 price;\n    }\n\n    mapping(uint => Article) public articles;\n    uint public articleCounter;\n\n    function kill() public ownerOnly {\n        selfdestruct(owner);\n    }\n\n    event LogSellArticle(address indexed _seller, uint _id, string _name, uint256 _price);\n\n    event LogBuyArticle(uint _id, address indexed _seller, address indexed _buyer, string _name, uint256 _price);\n\n    function sellArticle(string _name, string _description, uint256 _price) public {\n        articles[articleCounter] = Article(articleCounter, msg.sender, 0x0, _name, _description, _price);\n        LogSellArticle(articles[articleCounter].seller, articleCounter, articles[articleCounter].name, articles[articleCounter].price);\n        articleCounter++;\n    }\n\n    function buyArticle(uint articleId) payable public {\n        require(articleCounter > 0);\n        require(articleId >= 0 && articleId < articleCounter);\n        require(articles[articleId].buyer == 0x0);\n        require(msg.sender != articles[articleId].seller);\n        require(msg.value == articles[articleId].price);\n\n        articles[articleId].seller.transfer(msg.value);\n\n        articles[articleId].buyer = msg.sender;\n\n        LogBuyArticle(articles[articleId].id, articles[articleId].seller, articles[articleId].buyer, articles[articleId].name, articles[articleId].price);\n    }\n}\n",
  "sourcePath": "/Users/alexanderpopov/reps/github/ChainSkills/Training/chainlist/contracts/ChainList.sol",
  "compiler": {
    "name": "solc",
    "version": "0.4.19+commit.c4cbbb05.Emscripten.clang"
  },
  "schemaVersion": "2.0.0",
  "updatedAt": "2018-04-10T19:34:34.002Z"
}